:020000040000FA
:0F0000000204CBE4F50AF511F50FF50BF50C2210
:0F0013000205E0D2847FC87E001208EAC2842270
:100023000206E41207277F007EC27D017C001208CE
:0600330088D2ACD2AF221E
:10003B00020565E4FDE50A601C050CE50C70020584
:10004B000BD39488E50B9413400B120003E51C941F
:10005B00FF5002051C120A1FEF700302017C1209EC
:10006B00E98F657D01E4F50BF50CE50A14601814B6
:10007B00603D24FE607324046003020176E565B4E1
:10008B005AD3750A01800FE565B4A505750A028080
:10009B0008E565B45A16E4F511AF11051174202F5C
:1000AB00F582E43400F583E565F080A902017685DD
:1000BB00650FAF11051174202FF582E43400F58321
:1000CB00E565F0E50FC39403400DE50FD39409509C
:1000DB0006750A04020060120003E51CC394FF407E
:1000EB0003020060051C020060E511C3940C401173
:1000FB00120003E51C94FF4003020060051C020084
:10010B0060AF11051174202FF582E43400F583E5FF
:10011B0065F0E50F2403FFE433FEE511C39FEE64A6
:10012B0080F87480985003020060900023E0F5661D
:10013B00E56664836006E5666482702D900024E0BA
:10014B00FEA3E0FBEEF512EBF513E50FC3940540B0
:10015B0018900027E0FEA3E0FBEEF514EBF515D2AB
:10016B0000050EE50E7002050D8000120003020063
:10017B006030000DAD15AC14AF13AE1212018DC271
:10018B0000228C678D68EF8EF01203CF01B7100041
:10019B0001E1110002071200022E1300025314009A
:1001AB000272160002A52000000002CBE56845672D
:1001BB00601120010ED2017509077508031207663D
:1001CB000202A2E568456760030202CB200103022D
:1001DB0002CBC201804A2001030202CBD3E5689413
:1001EB000AE567940040030202CBE50965687002DB
:1001FB00E56770030202CB856809802420010302A6
:10020B0002CBD3E568940AE567940040030202CB66
:10021B00E50865687002E56770030202CB85680824
:10022B000207662001030202CBE5686401456760A3
:10023B00030202CB750906750804120766E4FDFC80
:10024B00FF7E1312081F804F300175E5686401456E
:10025B0067706D750904750807120766E4FDFCFFEE
:10026B007E1412081F8030300116E5686401456763
:10027B00700E7509017508011207661208198017AF
:10028B0030013DE56864024567703575090A7508EC
:10029B000A120766120819020A07E5684567601813
:1002AB00E51065687002E567600EE56875F00AA4F5
:1002BB00FF12094985681022E56845677002F51041
:1002CB0022F8BB010DE58229F582E5833AF583E837
:1002DB00F0225006E92582C8F622BBFE05E92582ED
:1002EB00C8F22275F008758200EF2FFFEE33FECDBA
:1002FB0033CDCC33CCC58233C5829BED9AEC99E5DB
:10030B008298400CF582EE9BFEED9AFDEC99FC0F6A
:10031B00D5F0D6E4CEFBE4CDFAE4CCF9A88222B832
:10032B0000C1B90059BA002DEC8BF084CFCECDFCB7
:10033B00E5F0CBF97818EF2FFFEE33FEED33FDEC44
:10034B0033FCEB33FB10D703994004EB99FB0FD82D
:10035B00E5E4F9FA227818EF2FFFEE33FEED33FDCB
:10036B00EC33FCC933C910D7059BE99A4007EC9BCA
:10037B00FCE99AF90FD8E0E4C9FAE4CCFB2275F05A
:10038B0010EF2FFFEE33FEED33FDCC33CCC833C86B
:10039B0010D7079BEC9AE899400AED9BFDEC9AFC71
:1003AB00E899F80FD5F0DAE4CDFBE4CCFAE4C8F920
:1003BB0022E8600FECC313FCED13FDEE13FEEF13FD
:1003CB00FFD8F122D083D082F8E49370127401939A
:1003DB00700DA3A393F8740193F5828883E473746F
:1003EB000293B5F0067403936860E9A3A3A3A380FB
:1003FB00D8120A34EF70030204CA7B007A00791614
:10040B007D04120851851865E5656519F4600302D2
:10041B0004CAE5656481702DB2013001187F0112A9
:10042B0007A47D017C007F007E1012081F75090751
:10043B00750803807DE4FDFCFF7E1012081FE4FFAE
:10044B001207A4806D300177E565B4A10BE509C3F4
:10045B00940A50640509805AE565B4510BE509D33C
:10046B00940040541509804AE565B49913E508C317
:10047B00940A40047F008004E50804FF8F08803253
:10048B00E565B4F9087509017508018025E565B4C2
:10049B0041087509067508048018E565B4D9087517
:1004AB00090A75080A800BE565B4C10C750904755A
:1004BB000807120766120A077F647E001208EA22F9
:1004CB00787FE4F6D8FD9000007FFF7E03E4F0A375
:1004DB00DFFCDEFA75816C020520020975E493A33B
:1004EB00F8E493A34003F68001F208DFF48029E4DB
:1004FB0093A3F85407240CC8C333C4540F4420C827
:10050B00834004F456800146F6DFE4800B010204BD
:10051B0008102040809007DFE47E019360BCA3FFAE
:10052B00543F30E509541FFEE493A360010ECF54F2
:10053B00C025E060A840B8E493A3FAE493A3F8E4E1
:10054B0093A3C8C582C8CAC583CAF0A3C8C582C84D
:10055B00CAC583CADFE9DEE780BEC0E0C0D075D074
:10056B0000C000C005C006C007E5EC20E50575EC32
:10057B00008055AF8CEFFEAD8AEDFF758A00758C50
:10058B0000D28C75EC0020023FC3EF9450EE9446E2
:10059B004017D3EF9430EE9475500ED20375630071
:1005AB008E218F22756301801F30031CAD63ED25F7
:1005BB00E02421F8A60608A6070563E563C394218A
:1005CB004006D202C203C28CD007D006D005D000A1
:1005DB00D0D0D0E032C0E0C0D075D000C000C00594
:1005EB00C006C007AF8CEFFEAD8AEDFF758A0075B4
:1005FB008C00D28C20023EC3EF9450EE94464014F4
:10060B00D3EF9430EE9475500BD2037563018E21AA
:10061B008F22802130031EAD630563ED25E024217D
:10062B00F8A60608A607E563C394214008D202C2C8
:10063B0003C28CC2AFD007D006D005D000D0D0D02B
:10064B00E032E4F5B1F5B2F5B3F5B4F5ACF5AD5375
:10065B00B1BF53B2BF43B18053B27F53B1EF43B27B
:10066B0010C28453B3EF43B41053B3DF43B42043EE
:10067B00B12053B2DF53E9FB53E9BF43EA2053EBFD
:10068B00DF43E94043EA2053EBDFFF0208BAEFD325
:10069B00940AAE0740027E0AAF06EF25E0243AF536
:1006AB0082E4340AF583E493FE740193A2AF9204BF
:1006BB00C2AF75C7AA75C755759101A20492AFF564
:1006CB00CD8EC5A2AF9204C2AF75C7AA75C755E44C
:1006DB00F591A20492AFD2DE22C0E0C083C082C0EB
:1006EB00D075D000C007309823E51A04541FF56469
:1006FB00651D6014AF1A74002FF582E43400F58386
:10070B00E599F085641A8002051BC298309902C2E4
:10071B0099D007D0D0D082D083D0E032E58730E4B7
:10072B0039AF84AD85EF25E0FFE433FEED54017C5A
:10073B00002FFFEC3EFE74F22FFF74FF3EFEEF54D2
:10074B0001FDEEC313EF1375C7AA75C755F5847575
:10075B00C7AA75C7558D855387EF2230010AAF099C
:10076B001209A1AF08020699E4F5DBF5D3A2AF920B
:10077B0004C2AF75C7AA75C755759101A20492AF94
:10078B00F5CDF5C5A2AF9204C2AF75C7AA75C75513
:10079B00F591A20492AFD2DE228F667F5A120A2AFB
:1007AB007FA5120A2A7F07120A2A7F82120A2AE4DD
:1007BB00FF120A2A7F84120A2A7F5A120A2A7F0101
:1007CB00120A2AE4FF120A2AAF66120A2A7FF47E63
:1007DB00010208EA011A00011D00011B00010A00B9
:1007EB00011100010F00020B0000C10002120000FA
:1007FB0002140000020D0000011C00C101010907D9
:10080B00010803011000C102C10301630000E4FDF4
:10081B00FCFF7E168E698F6A8C6B8D6C7F5A120A69
:10082B002A7FA5120A2A7F05120A2A7F82120A2A18
:10083B00E569FF120A2AAF6A120A2AE56BFF120A50
:10084B002AAF6C020A2A8B668A6789688D69E4FC79
:10085B00ECC39569501DEC33333354F804FF120984
:10086B001AAB66AA67A9688C82758300EF1202CC5B
:10087B000C80DDC202C203E4F563D2AF2253B1BFD9
:10088B0053B2BF43B18053B27F7598504389204315
:10089B008780AB07AA06A905A8047F487EE87D01DF
:1008AB007C0012032AEFF404F58DD28EC29922C27A
:1008BB0002C203E4F5637E427821E4F608DEFCE530
:1008CB008954F04401F589E4F58AF58CEF600A242C
:1008DB00FE7009D28AD2AA8003439B80D2AF22AD8D
:1008EB0007AC067BC47AFF53C4F843C402ED1DAEBC
:1008FB000470011C4E601753C4EF8AC68BC543C4EA
:10090B0008E5C430E4FB53C4F753C4EF80DF22E4A3
:10091B00FEFDEF2D25E02421F8E6FA08E6FBEE2597
:10092B00E0FEC3EB94B8EA940B400CD3EB9418EABB
:10093B00941550034306010DBD08D7AF06228F69EE
:10094B007F5A120A2A7FA5120A2A7F04120A2A7FCB
:10095B0082120A2AE4FF120A2A7F82120A2AAF693C
:10096B00120A2A7F107E270208EA12064D12001681
:10097B001200261209C6E4FDFCFF7E1312081FE4C9
:10098B00FDFCFF7E1412081F1208191207661203D2
:10099B00FC12003E80F8EFD3940AAE0740027E0AA9
:1009AB00AF06EF25E0243AF582E4340AF583E493AD
:1009BB00FE740193F5DB8ED3D2DE2243DE0243C6F7
:1009CB000253DF3F53DFEFD2DC538EBF43DF0353C2
:1009DB00DFFBE4F5D675D95675D104D2DF22E51AC3
:1009EB00B51D037F0022AF1D74002FF582E4340088
:1009FB00F583E0FFE51D04541FF51D22E509FD7C81
:100A0B00007F007E1112081FE508FD7C007F007E31
:100A1B001202081FE51A651D7F0060027F0122C2CA
:100A2B00998F993099FDC29922A202E433FF2200DB
:100A3B0000006300C7012B018F01F3025702BB03B8
:050A4B001F038303E717
:00000001FF
