:020000040000FA
:0F000000020471D2847FC87E00120852C284228B
:0E001300020586E51665177F0060027F012258
:1000230002068A1206C97F007EC27D017C00120788
:06003300F0D2ACD2AF22B6
:10003B0002050B8C678D68EF8EF012028000681042
:10004B00000092110000B8120000DF13000104142D
:10005B000001231600015620000000017CE56845D5
:10006B0067601120010ED20175090775080312078D
:10007B0008020153E5684567600302017C20010318
:10008B0002017CC201804A20010302017CD3E56896
:10009B00940AE5679400400302017CE509656870EA
:1000AB0002E567700302017C856809802420010347
:1000BB0002017CD3E568940AE567940040030201D2
:1000CB007CE50865687002E567700302017C856852
:1000DB000802070820010302017CE56864014567FB
:1000EB00600302017C750906750804120708E4FD1C
:1000FB00FCFF7E13120787804F300175E5686401A2
:10010B004567706D750904750807120708E4FDFC57
:10011B00FF7E141207878030300116E568640145B5
:10012B0067700E75090175080112070812078180A7
:10013B001730013DE56864024567703575090A752E
:10014B00080A12070812078102099BE568456760D8
:10015B0018E50C65687002E567600EE56875F00AD6
:10016B00A4FF1208B185680C22E56845677002F59B
:10017B000C22F8BB010DE58229F582E5833AF58364
:10018B00E8F0225006E92582C8F622BBFE05E925D8
:10019B0082C8F22275F008758200EF2FFFEE33FE56
:1001AB00CD33CDCC33CCC58233C5829BED9AEC9944
:1001BB00E58298400CF582EE9BFEED9AFDEC99FCE6
:1001CB000FD5F0D6E4CEFBE4CDFAE4CCF9A882222D
:1001DB00B800C1B90059BA002DEC8BF084CFCECD4D
:1001EB00FCE5F0CBF97818EF2FFFEE33FEED33FD86
:1001FB00EC33FCEB33FB10D703994004EB99FB0F6B
:10020B00D8E5E4F9FA227818EF2FFFEE33FEED3341
:10021B00FDEC33FCC933C910D7059BE99A4007ECB9
:10022B009BFCE99AF90FD8E0E4C9FAE4CCFB227500
:10023B00F010EF2FFFEE33FEED33FDCC33CCC83394
:10024B00C810D7079BEC9AE899400AED9BFDEC9AF6
:10025B00FCE899F80FD5F0DAE4CDFBE4CCFAE4C86E
:10026B00F922E8600FECC313FCED13FDEE13FEEF68
:10027B0013FFD8F122D083D082F8E493701274016B
:10028B0093700DA3A393F8740193F5828883E473A1
:10029B00740293B5F0067403936860E9A3A3A3A358
:1002AB0080D8120016EF700302039112097D8F653F
:1002BB00E50A14601814603D24FE60622404600398
:1002CB0002038BE565B45ADA750A01800FE565B454
:1002DB00A505750A028008E565B45A16E4F50DAF5D
:1002EB000D050D74202FF582E43400F583E565F0E0
:1002FB0080B002038B85650BAF0D050D74202FF5B8
:10030B0082E43400F583E565F0E50BD39400400CF3
:10031B00E50BD394095005750A0480868062AF0DF6
:10032B00050D74202FF582E43400F583E565F0E5C7
:10033B000B2403FFE433FEC3E50D9FEE6480F874DA
:10034B00809850030202AD900023E0F566E56664E9
:10035B00836006E56664827025900024E0FEA3E0CE
:10036B00FDEEF50EEDF50FE50BC394054010900077
:10037B0027E0FEA3E0FDEEF510EDF511D2008000B5
:10038B00E4F50A0202AD30000DAD11AC10AF0FAEAB
:10039B000E12003EC200221209BDEF700302047060
:1003AB007B007A0079127D041207B9851465E56527
:1003BB006515F46003020470E5656481702DB2016C
:1003CB003001187F011207467D017C007F007E10F3
:1003DB00120787750907750803807DE4FDFCFF7E16
:1003EB0010120787E4FF120746806D300177E56531
:1003FB00B4A10BE509C3940A50640509805AE5655D
:10040B00B4510BE509D3940040541509804AE565B6
:10041B00B49913E508C3940A40047F008004E508EF
:10042B0004FF8F088032E565B4F90875090175087A
:10043B00018025E565B44108750906750804801827
:10044B00E565B4D90875090A75080A800BE565B42A
:10045B00C10C75090475080712070812099B7F6404
:10046B007E0012085222787FE4F6D8FD9000007FC0
:10047B00FF7E03E4F0A3DFFCDEFA75816C0204C699
:10048B000208DDE493A3F8E493A34003F68001F2A2
:10049B0008DFF48029E493A3F85407240CC8C33372
:1004AB00C4540F4420C8834004F456800146F6DF41
:1004BB00E4800B0102040810204080900909E47EBF
:1004CB00019360BCA3FF543F30E509541FFEE49336
:1004DB00A360010ECF54C025E060A840B8E493A3FD
:1004EB00FAE493A3F8E493A3C8C582C8CAC583CA28
:1004FB00F0A3C8C582C8CAC583CADFE9DEE780BEE0
:10050B00C0E0C0D075D000C000C005C006C007E574
:10051B00EC20E50575EC008055AF8CEFFEAD8AED58
:10052B00FF758A00758C00D28C75EC0020023FC3DE
:10053B00EF9450EE94464017D3EF9430EE947550F1
:10054B000ED2037563008E218F22756301801F30DD
:10055B00031CAD63ED25E02421F8A60608A60705CC
:10056B0063E563C394214006D202C203C28CD00759
:10057B00D006D005D000D0D0D0E032C0E0C0D075CE
:10058B00D000C000C005C006C007AF8CEFFEAD8A1F
:10059B00EDFF758A00758C00D28C20023EC3EF9460
:1005AB0050EE94464014D3EF9430EE9475500BD22A
:1005BB00037563018E218F22802130031EAD6305ED
:1005CB0063ED25E02421F8A60608A607E563C3948E
:1005DB00214008D202C203C28CC2AFD007D006D0D2
:1005EB0005D000D0D0D0E032E4F5B1F5B2F5B3F5DB
:1005FB00B4F5ACF5AD53B1BF53B2BF43B18053B2F9
:10060B007F53B1EF43B210C28453B3EF43B41053D3
:10061B00B3DF43B42043B12053B2DF53E9FB53E9BB
:10062B00BF43EA2053EBDF43E94043EA2053EBDFC0
:10063B00FF020822EFD3940AAE0740027E0AAF06F0
:10064B00EF25E024C3F582E43409F583E493FE74CB
:10065B000193A2AF9204C2AF75C7AA75C755759126
:10066B0001A20492AFF5CD8EC5A2AF9204C2AF75B5
:10067B00C7AA75C755E4F591A20492AFD2DE22C08A
:10068B00E0C083C082C0D075D000C00730981FE592
:10069B001604541FF56465176012AF1674002FF51E
:1006AB0082E43400F583E599F0856416C29830999D
:1006BB0002C299D007D0D0D082D083D0E032E58768
:1006CB0030E439AF84AD85EF25E0FFE433FEED5424
:1006DB00017C002FFFEC3EFE74F22FFF74FF3EFEF9
:1006EB00EF5401FDEEC313EF1375C7AA75C755F58C
:1006FB008475C7AA75C7558D855387EF2230010ABC
:10070B00AF09120935AF0802063FE4F5DBF5D3A2BA
:10071B00AF9204C2AF75C7AA75C755759101A204F4
:10072B0092AFF5CDF5C5A2AF9204C2AF75C7AA754E
:10073B00C755F591A20492AFD2DE228F667F5A1273
:10074B0009B37FA51209B37F071209B37F82120980
:10075B00B3E4FF1209B37F841209B37F5A1209B3B2
:10076B007F011209B3E4FF1209B3AF661209B37F1D
:10077B00F47E01020852E4FDFCFF7E168E698F6A3F
:10078B008C6B8D6C7F5A1209B37FA51209B37F0551
:10079B001209B37F821209B3E569FF1209B3AF6A7D
:1007AB001209B3E56BFF1209B3AF6C0209B38B6689
:1007BB008A6789688D69E4FCECC39569501DEC333D
:1007CB00333354F804FF120882AB66AA67A9688C0E
:1007DB0082758300EF12017D0C80DDC202C203E43F
:1007EB00F563D2AF2253B1BF53B2BF43B18053B203
:1007FB007F759850438920438780AB07AA06A905CC
:10080B00A8047F487EE87D017C001201DBEFF40435
:10081B00F58DD28EC29922C202C203E4F5637E42E9
:10082B007821E4F608DEFCE58954F04401F589E40F
:10083B00F58AF58CEF600A24FE7009D28AD2AA8061
:10084B0003439B80D2AF22AD07AC067BC47AFF5328
:10085B00C4F843C402ED1DAE0470011C4E60175367
:10086B00C4EF8AC68BC543C408E5C430E4FB53C44C
:10087B00F753C4EF80DF22E4FEFDEF2D25E02421AA
:10088B00F8E6FA08E6FBEE25E0FEC3EB94B8EA9433
:10089B000B400CD3EB9418EA941550034306010D4F
:1008AB00BD08D7AF06228F697F5A1209B37FA512F5
:1008BB0009B37F041209B37F821209B3E4FF120953
:1008CB00B37F821209B3AF691209B37F107E27027F
:1008DB0008521205F312000312002612095AE4FD06
:1008EB00FCFF7E13120787E4FDFCFF7E14120787C3
:1008FB001207811207081203A21202AD80F801162B
:10090B0000011700010A00010D00010B00C10002DC
:10091B000E000002100000C10101090701080301CC
:10092B000C00C102C10301630000EFD3940AAE07B0
:10093B0040027E0AAF06EF25E024C3F582E43409BA
:10094B00F583E493FE740193F5DB8ED3D2DE224361
:10095B00DE0243C60253DF3F53DFEFD2DC538EBFC1
:10096B0043DF0353DFFBE4F5D675D95675D104D2BB
:10097B00DF22E516B517037F0022AF1774002FF5A2
:10098B0082E43400F583E0FFE51704541FF51722CA
:10099B00E509FD7C007F007E11120787E508FD7CD1
:1009AB00007F007E12020787C2998F993099FDC292
:1009BB009922A202E433FF220000006300C7012B3F
:0E09CB00018F01F3025702BB031F038303E7F2
:00000001FF
