:020000040000FA
:0F00000002049CE4F50AF50FF50DF50BF50C2243
:0F0013000205B1D2847FC87E001208ADC28422DC
:100023000206B51206F47F007EC27D017C00120831
:060033001BD2ACD2AF228B
:10003B000205368C678D68EF8EF012028000681017
:10004B00000092110000B8120000DF13000104142D
:10005B000001231600015620000000017CE56845D5
:10006B0067601120010ED20175090775080312078D
:10007B0033020153E5684567600302017C200103ED
:10008B0002017CC201804A20010302017CD3E56896
:10009B00940AE5679400400302017CE509656870EA
:1000AB0002E567700302017C856809802420010347
:1000BB0002017CD3E568940AE567940040030201D2
:1000CB007CE50865687002E567700302017C856852
:1000DB000802073320010302017CE56864014567D0
:1000EB00600302017C750906750804120733E4FDF1
:1000FB00FCFF7E131207B2804F300175E568640177
:10010B004567706D750904750807120733E4FDFC2C
:10011B00FF7E141207B28030300116E5686401458A
:10012B0067700E7509017508011207331207AC8051
:10013B001730013DE56864024567703575090A752E
:10014B00080A1207331207AC0209CAE56845676053
:10015B0018E50E65687002E567600EE56875F00AD4
:10016B00A4FF12090C85680E22E56845677002F53D
:10017B000E22F8BB010DE58229F582E5833AF58362
:10018B00E8F0225006E92582C8F622BBFE05E925D8
:10019B0082C8F22275F008758200EF2FFFEE33FE56
:1001AB00CD33CDCC33CCC58233C5829BED9AEC9944
:1001BB00E58298400CF582EE9BFEED9AFDEC99FCE6
:1001CB000FD5F0D6E4CEFBE4CDFAE4CCF9A882222D
:1001DB00B800C1B90059BA002DEC8BF084CFCECD4D
:1001EB00FCE5F0CBF97818EF2FFFEE33FEED33FD86
:1001FB00EC33FCEB33FB10D703994004EB99FB0F6B
:10020B00D8E5E4F9FA227818EF2FFFEE33FEED3341
:10021B00FDEC33FCC933C910D7059BE99A4007ECB9
:10022B009BFCE99AF90FD8E0E4C9FAE4CCFB227500
:10023B00F010EF2FFFEE33FEED33FDCC33CCC83394
:10024B00C810D7079BEC9AE899400AED9BFDEC9AF6
:10025B00FCE899F80FD5F0DAE4CDFBE4CCFAE4C86E
:10026B00F922E8600FECC313FCED13FDEE13FEEF68
:10027B0013FFD8F122D083D082F8E493701274016B
:10028B0093700DA3A393F8740193F5828883E473A1
:10029B00740293B5F0067403936860E9A3A3A3A358
:1002AB0080D8E4FDE50A6014050CE50C7002050B23
:1002BB00D39488E50B941340030203B61209E2EFC3
:1002CB0070030203BC1209AC8F657D01E4F50BF5DD
:1002DB000CE50A14601814603D24FE60632404606E
:1002EB00030203B6E565B45AD3750A01800FE565C1
:1002FB00B4A505750A028008E565B45A16E4F50F36
:10030B00AF0F050F74202FF582E43400F583E565FC
:10031B00F080A90203B685650DAF0F050F74202F72
:10032B00F582E43400F583E565F0E50DC3940340F5
:10033B000DE50DD394095006750A040202C7806BB4
:10034B00E50FC3940C40028062AF0F050F74202F92
:10035B00F582E43400F583E565F0E50D2403FFE455
:10036B0033FEE50FC39FEE6480F874809850030250
:10037B0002C7900023E0F566E56664836006E566D8
:10038B0064827025900024E0FEA3E0FBEEF510EBF9
:10039B00F511E50DC394054010900027E0FEA3E096
:1003AB00FBEEF512EBF513D20080001200030202F4
:1003BB00C730000DAD13AC12AF11AE1012003EC220
:1003CB0000221209F7EF700302049B7B007A00797D
:1003DB00147D041207E4851665E5656517F4600363
:1003EB0002049BE5656481702DB2013001187F0119
:1003FB001207717D017C007F007E101207B2750918
:10040B0007750803807DE4FDFCFF7E101207B2E444
:10041B00FF120771806D300177E565B4A10BE5091B
:10042B00C3940A50640509805AE565B4510BE5097C
:10043B00D3940040541509804AE565B49913E50837
:10044B00C3940A40047F008004E50804FF8F0880F2
:10045B0032E565B4F9087509017508018025E56574
:10046B00B441087509067508048018E565B4D90808
:10047B0075090A75080A800BE565B4C10C7509048A
:10048B007508071207331209CA7F647E001208AD84
:10049B0022787FE4F6D8FD9000007FFF7E03E4F026
:1004AB00A3DFFCDEFA75816C0204F1020938E493D8
:1004BB00A3F8E493A34003F68001F208DFF480294C
:1004CB00E493A3F85407240CC8C333C4540F44203B
:1004DB00C8834004F456800146F6DFE4800B01022A
:1004EB0004081020408090084DE47E019360BCA36B
:1004FB00FF543F30E509541FFEE493A360010ECF78
:10050B0054C025E060A840B8E493A3FAE493A3F8A1
:10051B00E493A3C8C582C8CAC583CAF0A3C8C58261
:10052B00C8CAC583CADFE9DEE780BEC0E0C0D075AC
:10053B00D000C000C005C006C007E5EC20E505757E
:10054B00EC008055AF8CEFFEAD8AEDFF758A007520
:10055B008C00D28C75EC0020023FC3EF9450EE94CC
:10056B00464017D3EF9430EE9475500ED20375635B
:10057B00008E218F22756301801F30031CAD63ED4C
:10058B0025E02421F8A60608A6070563E563C394B6
:10059B00214006D202C203C28CD007D006D005D0B0
:1005AB0000D0D0D0E032C0E0C0D075D000C000C0C9
:1005BB0005C006C007AF8CEFFEAD8AEDFF758A0054
:1005CB00758C00D28C20023EC3EF9450EE944640C3
:1005DB0014D3EF9430EE9475500BD2037563018EE8
:1005EB00218F22802130031EAD630563ED25E024AE
:1005FB0021F8A60608A607E563C394214008D2029A
:10060B00C203C28CC2AFD007D006D005D000D0D069
:10061B00D0E032E4F5B1F5B2F5B3F5B4F5ACF5AD28
:10062B0053B1BF53B2BF43B18053B27F53B1EF430A
:10063B00B210C28453B3EF43B41053B3DF43B420AF
:10064B0043B12053B2DF53E9FB53E9BF43EA2053D5
:10065B00EBDF43E94043EA2053EBDFFF02087DEF7A
:10066B00D3940AAE0740027E0AAF06EF25E024FDC5
:10067B00F582E43409F583E493FE740193A2AF92FF
:10068B0004C2AF75C7AA75C755759101A20492AF85
:10069B00F5CD8EC5A2AF9204C2AF75C7AA75C7556B
:1006AB00E4F591A20492AFD2DE22C0E0C083C082F7
:1006BB00C0D075D000C00730981FE51804541FF543
:1006CB006465196012AF1874002FF582E43400F5DD
:1006DB0083E599F0856418C298309902C299D007C6
:1006EB00D0D0D082D083D0E032E58730E439AF84EC
:1006FB00AD85EF25E0FFE433FEED54017C002FFFC9
:10070B00EC3EFE74F22FFF74FF3EFEEF5401FDEE44
:10071B00C313EF1375C7AA75C755F58475C7AA75AB
:10072B00C7558D855387EF2230010AAF0912096433
:10073B00AF0802066AE4F5DBF5D3A2AF9204C2AFB1
:10074B0075C7AA75C755759101A20492AFF5CDF582
:10075B00C5A2AF9204C2AF75C7AA75C755F591A2D2
:10076B000492AFD2DE228F667F5A1209ED7FA5125B
:10077B0009ED7F071209ED7F821209EDE4FF1209E3
:10078B00ED7F841209ED7F5A1209ED7F011209EDFD
:10079B00E4FF1209EDAF661209ED7FF47E0102084A
:1007AB00ADE4FDFCFF7E168E698F6A8C6B8D6C7FC2
:1007BB005A1209ED7FA51209ED7F051209ED7F8213
:1007CB001209EDE569FF1209EDAF6A1209EDE56B50
:1007DB00FF1209EDAF6C0209ED8B668A6789688D94
:1007EB0069E4FCECC39569501DEC33333354F804C6
:1007FB00FF1208DDAB66AA67A9688C82758300EFD0
:10080B0012017D0C80DDC202C203E4F563D2AF227C
:10081B0053B1BF53B2BF43B18053B27F75985043AE
:10082B008920438780AB07AA06A905A8047F487EC9
:10083B00E87D017C001201DBEFF404F58DD28EC252
:10084B009922011800011900010A00010F00010D86
:10085B0000020B0000C1000210000002120000C1D8
:10086B0001010907010803010E00C102C103016365
:10087B000000C202C203E4F5637E427821E4F6086D
:10088B00DEFCE58954F04401F589E4F58AF58CEF3B
:10089B00600A24FE7009D28AD2AA8003439B80D2BD
:1008AB00AF22AD07AC067BC47AFF53C4F843C40236
:1008BB00ED1DAE0470011C4E601753C4EF8AC68B3E
:1008CB00C543C408E5C430E4FB53C4F753C4EF80FD
:1008DB00DF22E4FEFDEF2D25E02421F8E6FA08E601
:1008EB00FBEE25E0FEC3EB94B8EA940B400CD3EB84
:1008FB009418EA941550034306010DBD08D7AF06B3
:10090B00228F697F5A1209ED7FA51209ED7F041220
:10091B0009ED7F821209EDE4FF1209ED7F821209C6
:10092B00EDAF691209ED7F107E270208AD12061E8E
:10093B00120016120026120989E4FDFCFF7E131229
:10094B0007B2E4FDFCFF7E141207B21207AC1207CC
:10095B00331203CD1202AD80F8EFD3940AAE0740E9
:10096B00027E0AAF06EF25E024FDF582E43409F59B
:10097B0083E493FE740193F5DB8ED3D2DE2243DE48
:10098B000243C60253DF3F53DFEFD2DC538EBF432C
:10099B00DF0353DFFBE4F5D675D95675D104D2DFEF
:1009AB0022E518B519037F0022AF1974002FF582C9
:1009BB00E43400F583E0FFE51904541FF51922E533
:1009CB0009FD7C007F007E111207B2E508FD7C005B
:1009DB007F007E120207B2E51865197F0060027F67
:1009EB000122C2998F993099FDC29922A202E43358
:1009FB00FF220000006300C7012B018F01F3025798
:080A0B0002BB031F038303E794
:00000001FF
