:020000040000FA
:100000000203861206247F007EC27D017C00020767
:01001000806F
:10001300020520EFD3940AAE0740027E0AAF06EF33
:1000230025E024E4F582E43408F583E493FE7401C7
:1000330093F5DB8ED3D2DE220204A5051CE51CC397
:10004300940A50030201BBE4F51CFF7E1012042046
:100053008E088F09E509F47003E508F46026E509C5
:100063004508601220000FD200751607751503129C
:100073000663D201800EE50945087008300005C209
:10008300001206632000030201BB7F007E131204EB
:10009300208E088F09E5096401450870117516065D
:1000A300751504120663E4FDFCFF7E13806A7F006E
:1000B3007E141204208E088F09E509640145087037
:1000C30011751604751507120663E4FDFCFF7E1413
:1000D30080467F007E161204208E088F09E509648E
:1000E3000145087011751601751501120663E4FDCB
:1000F300FCFF7E1680227F007E161204208E088F5E
:1001030009E50964024508701575160A75150A1282
:100113000663E4FDFCFF7E161206E2D201227F0095
:100123007E111204208E088F09E509F47003E50897
:10013300F4601BD3E509940AE50894005010E51612
:1001430065097002E50860068509161206637F00DB
:100153007E121204208E088F09E509F47003E50866
:10016300F4601BD3E509940AE50894005010E515E3
:1001730065097002E50860068509151206637F00AC
:100183007E201204208E088F09E509F47003E50828
:10019300F46025E50945086017E51765097002E570
:1001A30008600DEF75F00AA4FF1207B28509172244
:1001B300E50945087002F51722F8BB010DE5822910
:1001C300F582E5833AF583E8F0225006E92582C8F3
:1001D300F622BBFE05E92582C8F22275F008758276
:1001E30000EF2FFFEE33FECD33CDCC33CCC58233BE
:1001F300C5829BED9AEC99E58298400CF582EE9BC3
:10020300FEED9AFDEC99FC0FD5F0D6E4CEFBE4CDE0
:10021300FAE4CCF9A88222B800C1B90059BA002D7A
:10022300EC8BF084CFCECDFCE5F0CBF97818EF2F33
:10023300FFEE33FEED33FDEC33FCEB33FB10D70362
:10024300994004EB99FB0FD8E5E4F9FA227818EF0B
:100253002FFFEE33FEED33FDEC33FCC933C910D76A
:10026300059BE99A4007EC9BFCE99AF90FD8E0E477
:10027300C9FAE4CCFB2275F010EF2FFFEE33FEED4D
:1002830033FDCC33CCC833C810D7079BEC9AE8991D
:10029300400AED9BFDEC9AFCE899F80FD5F0DAE4FF
:1002A300CDFBE4CCFAE4C8F922E8600FECC313FCFD
:1002B300ED13FDEE13FEEF13FFD8F1221208DEEF6C
:1002C30070030203857B007A0079187D04120714FA
:1002D300851A08E508651BF46003020385E50864D5
:1002E30081702DB2003000187F011206A17D017CC0
:1002F300007F007E101206E2751607751503807DD8
:10030300E4FDFCFF7E101206E2E4FF1206A1806DFD
:1003130030006FE508B4A10BE516C3940A506305DA
:1003230016805AE508B4510BE516D39400405315D3
:1003330016804AE508B49913E515C3940A40047F6F
:10034300008004E51504FF8F158032E508B4F90831
:100353007516017515018025E508B4410875160663
:100363007515048018E508B4D90875160A75150AB9
:10037300800BE508B4C10B751604751507120663E7
:10038300D20122787FE4F6D8FD9000007FFF7E0340
:10039300E4F0A3DFFCDEFA7581630203DB02074BA3
:1003A300E493A3F8E493A34003F68001F208DFF497
:1003B3008029E493A3F85407240CC8C333C4540F0F
:1003C3004420C8834004F456800146F6DFE4800BE2
:1003D30001020408102040809008B0E47E0193607D
:1003E300BCA3FF543F30E509541FFEE493A360010F
:1003F3000ECF54C025E060A840B8E493A3FAE49379
:10040300A3F8E493A3C8C582C8CAC583CAF0A3C826
:10041300C582C8CAC583CADFE9DEE780BE8E0A8FFC
:100423000B7F5A1208D47FA51208D47F041208D474
:100433007F831208D4E50AFF1208D4AF0B1208D445
:100443007F011208D47F887E13EF1FAC0670011E54
:100453004C600D3098F3E599645A6004C29880E9C2
:10046300EF4E70028030750C5AC2987D017E037F77
:10047300E820980AEF1FAA0670011E4A70F3EF4E98
:1004830070028012740C2DF8A699C2980DBD09DD77
:10049300E50D64A560057EFF7FFF22E513FEE514ED
:1004A300FF22C0E0C0D075D000C000C005C006C0A8
:1004B30007E5EC20E50575EC008055AF8CEFFEAD4C
:1004C3008AEDFF758A00758C00D28C75EC002002D2
:1004D3003FC3EF9450EE94464017D3EF9430EE941D
:1004E30075500ED2037563008E218F2275630180D0
:1004F3001F30031CAD63ED25E02421F8A60608A6F2
:10050300070563E563C394214006D202C203C28C8C
:10051300D007D006D005D000D0D0D0E032C0E0C0A4
:10052300D075D000C000C005C006C007AF8CEFFE79
:10053300AD8AEDFF758A00758C00D28C20023EC314
:10054300EF9450EE94464014D3EF9430EE947550EC
:100553000BD2037563018E218F22802130031EADE0
:10056300630563ED25E02421F8A60608A607E563E5
:10057300C394214008D202C203C28CC2AFD007D0B9
:1005830006D005D000D0D0D0E032E4F5B1F5B2F515
:10059300B3F5B4F5ACF5AD53B1BF53B2BF43B180BE
:1005A30053B27F53B1EF43B210C28453B3EF43B49A
:1005B3001053B3DF43B42043B12053B2DF53E9FBFD
:1005C30053E9BF43EA2053EBDF43E94043EA2053B7
:1005D300EBDFFF0207E3EFD3940AAE0740027E0A84
:1005E300AF06EF25E024E4F582E43408F583E493D1
:1005F300FE740193A2AF9204C2AF75C7AA75C75523
:10060300759101A20492AFF5CD8EC5A2AF9204C23B
:10061300AF75C7AA75C755E4F591A20492AFD2DEB0
:1006230022E58730E439AF84AD85EF25E0FFE4337D
:10063300FEED54017C002FFFEC3EFE74F22FFF749D
:10064300FF3EFEEF5401FDEEC313EF1375C7AA750A
:10065300C755F58475C7AA75C7558D855387EF228E
:1006630030000AAF16120016AF150205D9E4F5DB08
:10067300F5D3A2AF9204C2AF75C7AA75C7557591DA
:1006830001A20492AFF5CDF5C5A2AF9204C2AF7536
:10069300C7AA75C755F591A20492AFD2DE228F097E
:1006A3007F5A1208D47FA51208D47F071208D47F7B
:1006B300821208D4E4FF1208D47F841208D47F5A2C
:1006C3001208D47F011208D4E4FF1208D4AF091230
:1006D30008D47FF47E01020813E4FDFCFF7E168E2E
:1006E3000A8F0B8C0C8D0D7F5A1208D47FA512082C
:1006F300D47F051208D47F821208D4E50AFF1208BA
:10070300D4AF0B1208D4E50CFF1208D4AF0D0208C6
:10071300D48B098A0A890B8D0CE4FCECC3950C502D
:100723001DEC33333354F804FF120843AB09AA0A10
:10073300A90B8C82758300EF1201BC0C80DDC20211
:10074300C203E4F563D2AF2212058D1208C812006A
:1007530003120872E4FDFCFF7E131206E2E4FDFCC3
:10076300FF7E141206E21206DC1206DC1206631286
:1007730002BF30010312089512003E80F253B1BF4D
:1007830053B2BF43B18053B27F759850438920431E
:100793008780AB07AA06A905A8047F487EE87D01E8
:1007A3007C0012021AEFF404F58DD28EC299228FC7
:1007B3000A7F5A1208D47FA51208D47F051208D4E1
:1007C3007F821208D4E4FF1208D47F821208D4E493
:1007D300FF1208D4AF0A1208D47FF47E0102081373
:1007E300C202C203E4F5637E427821E4F608DEFC2C
:1007F300E58954F04401F589E4F58AF58CEF600A44
:1008030024FE7009D28AD2AA8003439B80D2AF22EE
:10081300AD07AC067BC47AFF53C4F843C402ED1D95
:10082300AE0470011C4E601753C4EF8AC68BC543D8
:10083300C408E5C430E4FB53C4F753C4EF80DF229C
:10084300E4FEFDEF2D25E02421F8E6FA08E6FBEEB1
:1008530025E0FEC3EB94B8EA940B400CD3EB941859
:10086300EA941550034306010DBD08D7AF06224392
:10087300DE0243C60253DF3F53DFEFD2DC538EBFAA
:1008830043DF0353DFFBE4F5D675D95675D104D2A4
:10089300DF22E516FD7C007F007E111206E2E515DE
:1008A300FD7C007F007E121206E2C20122C100011C
:1008B3001607011503011700011C00C101C102C184
:1008C3000301630000D2847FC87E00120813C28430
:1008D30022C2998F993099FDC29922A202E433FF73
:1008E300220000006300C7012B018F01F3025702AE
:0708F300BB031F038303E7B1
:00000001FF
